:03000000020245B4
:0C024500787FE4F6D8FD75812002028C61
:1003DB0028EE32A2E4A121EA20A060253926317152
:0103EB00FF12
:1003CA00081390F51C34713212F401121E01100048
:06038700C2A37F1E7E00F0
:10038D00E4FDFCC3ED9FEC9E5015E4FBFA0BBB00A6
:0F039D00010AEB64784A70F50DBD00010C80E495
:0103AC00222E
:10035800EF14601014601614601C24037020C2B4DB
:10036800D2B58004D2B4C2B5D2B6D2B722D2B4D2F2
:0F037800B5C2B6D2B722D2B4D2B5D2B6C2B7226E
:0A03EC00D2AF758901D2A9D28C228C
:1003AD00E4F97590FFAF01120358741329F8E6F5BF
:0C03BD00907F017E0012038D09B904E658
:0103C9002211
:10031700751114E5A05407640760327F017E00124F
:10032700038DE5A0540764076026E508B40121E4BE
:10033700F508E5A0540724FD600F24FE600714703C
:100347000F7511012275110222751103227508011B
:010357002283
:10015300E511B40112050EE50EC394034009E4F55D
:100163000E85120D85100CE50E7018E511B402070B
:10017300D200120387D2A3E511B40307C20012030E
:1001830087D2A3E50E64017059E511B40229051065
:10019300E510D3943C4003E4F510E51075F00A84B0
:1001A300E5F09003DB93F513E51075F00A8475F021
:1001B3000A84E5F093F514E511B40326E510700302
:1001C30075103C1510E51075F00A84E5F09003DB1B
:1001D30093F513E51075F00A8475F00A84E5F0933E
:1001E300F514E50E64027059E511B402290512E510
:1001F30012D394634003E4F512E51275F00A84E523
:10020300F09003DB93F515E51275F00A8475F00A97
:1002130084E5F093F516E511B40326E51270037532
:1002230012631512E51275F00A84E5F09003DB936F
:10023300F515E51275F00A8475F00A84E5F093F577
:02024300162281
:10000E00C2A37F647E0012038D75B0FF75A0FF75CD
:10001E0090FF7580FF1203EC85100C85120D1203F4
:10002E0017E511C3940A5003120153E50E7060E5F3
:10003E000C75F00A84E5F09003DB93F513E50C756F
:10004E00F00A8475F00A84E5F093F514E50D75F069
:10005E000A84E5F09354DFF515E50D75F00A847505
:10006E00F00A84E5F093F51630010FC201E50CD3CA
:10007E0094055006E50D7002B2A3E50D7011E50C66
:10008E00700DD2A385100C85120DC200751B01E5F3
:10009E000E6401704F300127E51075F00A84E5F00B
:1000AE009003DB93F513E51075F00A8475F00A845E
:1000BE00E5F093F514E51275F00A84E5F0801175FC
:1000CE0013FF7514FFE51275F00A84E5F09003DB5B
:1000DE009354DFF515E51275F00A8475F00A84E580
:1000EE00F093F516E50E64027055E51075F00A846E
:1000FE00E5F09003DB9330012FF513E51075F00A50
:10010E008475F00A84E5F093F514E51275F00A840F
:10011E00E5F09354DFF515E51275F00A8475F00AD3
:10012E0084E5F093F5168017F513E51075F00A8443
:10013E0075F00A84E5F093F5147515FF7516FF1228
:05014E0003AD02002CCE
:03000B000202D11D
:0402D100C0E0C0D0F9
:1002D500758CD8758AF0050AE50A70020509C3947C
:1002E50032E50994004008750900750A00B201302D
:1002F500001B750F00E51B7012751B64E50C70097A
:0D030500750C3CE50D6002150D150C151B67
:05031200D0D0D0E03264
:1002510002000EE493A3F8E493A34003F68001F2B5
:1002610008DFF48029E493A3F85407240CC8C333AE
:10027100C4540F4420C8834004F456800146F6DF7D
:10028100E4800B01020408102040809003CAE47E40
:10029100019360BCA3FF543F30E509541FFEE49372
:1002A100A360010ECF54C025E060A840B8E493A339
:1002B100FAE493A3F8E493A3C8C582C8CAC583CA64
:1002C100F0A3C8C582C8CAC583CADFE9DEE780BE1C
:0103DA000022
:00000001FF
